:100000000C942A001895000018950000189500001F
:10001000189500001895000018950000189500002C
:100020000C9497040C943C0318950000189500005C
:10003000189500001895000018950000189500000C
:1000400018950000189500001895000018950000FC
:10005000189500008FE58DBFC8E3E0E24E2E84E0E6
:100060008EBFD4E0F4E05F2EA89584B7082E877F7A
:1000700084BF88E1992781BD91BDEEEFF3E0A0E652
:10008000B0E088278D933197E9F766247FEF71BB45
:1000900073E877BB7FEF74BB7FEF7ABB949A959A36
:1000A000939A80E08FBD81E08EBD81E090E0AFE665
:1000B000B0E08D939C9383E083BF7894C19AC09AFB
:1000C00081E090E0A7E6B0E08D939C9381E090E022
:1000D000A3E6B0E08D939C9381E090E0A5E6B0E0CC
:1000E0008D939C93919A929A909AE1E0F0E0A2E627
:1000F000B0E091E00E94240584EF91E00E94FB04AF
:1001000000916200003011F00C94870091980091EA
:100110006200023011F00C948E0090980091620001
:10012000013011F00C9495009298D99A84EF91E0E7
:100130000E94FB04D998D89A84EF91E00E94FB04B6
:10014000D898DB9A84EF91E00E94FB04DB98DA9A5E
:1001500084EF91E00E94FB04DA98C79A84EF91E063
:100160000E94FB04C798A0E3B0E00C9104FB81E07F
:100170000EF480E08F93A0E3B0E00C9105FB81E0EA
:100180000EF480E09F91892B8F93A0E3B0E00C9157
:1001900003FB81E00EF480E09F91892B882311F40A
:1001A0000C942301C798D898D998DB98DA9879B736
:1001B0007E7F79BFF89480E090E0A0E6B0E08D9378
:1001C0009C9381E090E0A3E6B0E08D939C9381E066
:1001D00090E0A5E6B0E08D939C9381E090E0A7E6E7
:1001E000B0E08D939C93909A919A929A84990C94F2
:1001F000FD0080E080936200919885990C94040141
:1002000081E080936200929883990C94110182E0BE
:100210008093620081E090E0AFE6B0E08D939C9324
:100220009098E1E0F0E0A2E6B0E091E07BE70E9488
:10023000130584EF91E00E94FB04C09AC19A79B73C
:10024000716079BF7894A7E6B0E00D911C91013000
:1002500050E0150711F00C943A0300916200003051
:1002600011F00C94100281E090E0AFE6B0E08D93C5
:100270009C93BC98BD98B99AB89AC19AC09ADE9AD4
:10028000B4990C944401DB98B49B0C944E01DB9A16
:1002900081E090E0ABE6B0E08D939C93B3990C9431
:1002A000570180E090E0ABE6B0E08D939C93B59968
:1002B0000C945B01DA98B59B0C946501DA9A81E0A5
:1002C00090E0ADE6B0E08D939C93B2990C946E01F2
:1002D00080E090E0ADE6B0E08D939C93ABE6B0E0BB
:1002E0000D911C91003050E0150711F00C94BF01E6
:1002F000A6E3B0E00C9103FB81E00EF080E08F9369
:10030000A6E3B0E00C9104FB81E00EF480E09F9145
:1003100089238F93A6E3B0E00C9106FB81E00EF4F5
:1003200080E09F918923882311F40C94BF0188E019
:1003300090E00E94FB04A6E3B0E00C9103FB81E097
:100340000EF080E08F93A6E3B0E00C9104FB81E017
:100350000EF480E09F9189238F93A6E3B0E00C9187
:1003600006FB81E00EF480E09F918923882311F43D
:100370000C94BF01D89AC79A79B7716079BFADE67E
:10038000B0E00D911C91003050E0150711F00C9475
:100390001002A6E3B0E00C9102FB81E00EF080E0D9
:1003A0008F93A6E3B0E00C9105FB81E00EF480E0B2
:1003B0009F9189238F93A6E3B0E00C9106FB81E027
:1003C0000EF480E09F918923882311F40C9410028D
:1003D00088E090E00E94FB04A6E3B0E00C9102FBF1
:1003E00081E00EF080E08F93A6E3B0E00C9105FB76
:1003F00081E00EF480E09F9189238F93A6E3B0E023
:100400000C9106FB81E00EF480E09F918923882304
:1004100011F40C941002D99AC79A79B7716079BF18
:1004200000916200013011F00C94DC0281E090E058
:10043000AFE6B0E08D939C93BC98BD98B898EF93CD
:10044000FF93E5E1F0E00E94F204FF91EF91C09884
:10045000B99AEF93FF93E5E1F0E00E94F204FF9177
:10046000EF91C19AEF93FF93EEE2F0E00E94F20465
:10047000FF91EF91A5E6B0E00D911C91013050E0A5
:10048000150711F00C947D02B5990C947D0286E05D
:1004900090E00E94FB04A6E3B0E00C9105FB81E034
:1004A0000EF480E08F93A6E3B0E00C9106FB81E0B0
:1004B0000EF480E09F9189238F93A6E3B0E00C9126
:1004C00000FB81E00EF480E09F918923882311F4E2
:1004D0000C947D02B2990C946E02DA9AB29B0C9441
:1004E0007202D89AC79A79B7716079BF789480E020
:1004F00090E0A5E6B0E08D939C93B998EF93FF93BD
:10050000E5E1F0E00E94F204FF91EF91C198B89A02
:10051000EF93FF93E5E1F0E00E94F204FF91EF9189
:10052000C09AEF93FF93EEE2F0E00E94F204FF9195
:10053000EF91A3E6B0E00D911C91013050E015075A
:1005400011F00C94DC02B4990C94DC0286E090E08B
:100550000E94FB04A6E3B0E00C9104FB81E00EF4E2
:1005600080E08F93A6E3B0E00C9106FB81E00EF4EF
:1005700080E09F9189238F93A6E3B0E00C9101FB6B
:1005800081E00EF480E09F918923882311F40C947C
:10059000DC02B3990C94CD02DB9AB39B0C94D1028C
:1005A000D99AC79A79B7716079BF789480E090E062
:1005B000A3E6B0E08D939C9300916200023011F0AD
:1005C0000C943A03AFE6B0E00D911C91013050E07D
:1005D000150711F00C940603B998B89882E090E0E2
:1005E0000E94FB04C198C098BC9ABD9A82E090E03A
:1005F0000E94FB04C49AC59A82E090E00E94FB042A
:1006000080E090E0AFE6B0E08D939C93B39B0C94B8
:100610002103C598EF93FF93E0E6F0E00E94F20417
:10062000FF91EF91B39B0C941B03D99AC79A79B7AA
:10063000716079BF7894DA9AC59A79B7746079BF96
:100640007894DA98B29B0C943903C498EF93FF9393
:10065000E0E6F0E00E94F204FF91EF91B29B0C946F
:100660003703D89AC79A79B7716079BF7894DB9AC3
:10067000C49ADB980C94B3000F921F922F923F9272
:100680004F925F927F92AF92BF920F931F932F93DF
:100690003F934F935F936F937F938F939F93AF930A
:1006A000BF93CF93DF93EF93FF938FB78F93A0E622
:1006B000B0E00D911C9141E050E0040F151FA0E641
:1006C000B0E00D931C9300916200003011F00C9487
:1006D000BB03A0E6B0E00D911C91053050E015077A
:1006E0001CF011F00C9476030C94BB0380E090E0B6
:1006F000A7E6B0E08D939C93A0E6B0E00D911C912D
:10070000003550E015071CF011F00C9489030C948F
:100710008A03C798A0E6B0E00D911C910C3251E01D
:1007200015071CF011F00C9497030C94BB03D99897
:10073000D89880E090E0A0E6B0E08D939C9379B7E4
:100740007E7F79BFF89481E090E0A7E6B0E08D93DA
:100750009C9381E090E0A7E6B0E08D939C9381E0CC
:1007600090E0A3E6B0E08D939C9381E090E0A5E655
:10077000B0E08D939C9300916200013011F00C94D5
:100780002304A0E6B0E00D911C91053150E015075F
:100790001CF011F00C94CE030C94230480E090E044
:1007A000A7E6B0E08D939C93A0E6B0E00D911C917C
:1007B000003550E015071CF011F00C94E1030C9487
:1007C000E203C798A0E6B0E00D911C910C3251E015
:1007D00015071CF011F00C94EF030C942304D89827
:1007E000D998DB98DA9879B77E7F79BFF89480E062
:1007F00090E0A0E6B0E08D939C9381E090E0A3E6CA
:10080000B0E08D939C9381E090E0A5E6B0E08D93FD
:100810009C9381E090E0A7E6B0E08D939C93C19813
:10082000C09881E090E0A7E6B0E08D939C9381E0D2
:1008300090E0A3E6B0E08D939C9381E090E0A5E684
:10084000B0E08D939C9300916200023011F00C9403
:100850007B04A0E6B0E00D911C91003150E015073B
:100860001CF011F00C9436040C947B0480E090E0B2
:10087000A7E6B0E08D939C93A0E6B0E00D911C91AB
:10088000003550E015071CF011F00C9449040C944D
:100890004A04C798A0E6B0E00D911C910C3251E0DB
:1008A00015071CF011F00C9457040C947B04D89895
:1008B000D99879B77E7F79BFF89480E090E0A0E680
:1008C000B0E08D939C9381E090E0A7E6B0E08D933B
:1008D0009C9381E090E0A7E6B0E08D939C9381E04B
:1008E00090E0A3E6B0E08D939C9381E090E0A5E6D4
:1008F000B0E08D939C938F918FBFFF91EF91DF912B
:10090000CF91BF91AF919F918F917F916F915F91A7
:100910004F913F912F911F910F91BF90AF907F907A
:100920005F904F903F902F901F900F9018950F92CF
:100930001F922F923F924F925F927F92AF92BF92FF
:100940000F931F932F933F934F935F936F937F93D7
:100950008F939F93AF93BF93CF93DF93EF93FF93C7
:100960008FB78F93A9E6B0E00D911C9141E050E064
:10097000040F151FA9E6B0E00D931C93A9E6B0E0A3
:100980000D911C91033050E015071CF011F00C94F0
:10099000CB040C94D604DA98DB9880E090E0A9E6CA
:1009A000B0E08D939C9379B77B7F79BF8F918FBF98
:1009B000FF91EF91DF91CF91BF91AF919F918F9177
:1009C0007F916F915F914F913F912F911F910F9167
:1009D000BF90AF907F905F904F903F902F901F906F
:1009E0000F9018953197F1F70895689462F808957B
:1009F000E89462F80895EF93FF93EE27E82BE92B34
:100A000031F0EAEFF0E03197F1F70197D1F7FF917C
:100A1000EF910895E199FECFEEBBFFBB31960895AB
:100A200091E001C092E07B3751F47FB7F894F2DF98
:100A30008D918DBBE29AE19A9A95C9F77FBF77278E
:100A4000089591E001C092E0E5DFE09A8DB38D93C7
:060A50009A95D1F708950C
:00000001FF
